:100000000C94194F0C944A4F0C944A4F0C944A4F3D
:100010000C944A4F0C946A870C944A4F0D94FE6ED0
:100020000C94F5860C944A4F0C944A4F0C944A4F0A
:100030000D94CE830C944A4F0D94122D0D94795447
:100040000C944A4F0C946FEE0C944A4F0C944A4F08
:100050000C944A4F0C944A4F0C944A4F0D94F24A18
:100060000C944A4F0D944C4F0C944A4F0C944A4FA9
:100070000C944A4F0C944A4F0C944A4F0C944A4F9C
:100080000C944A4F0C944A4F0C944A4F0C944A4F8C
:100090000D94084F0C944A4F0C944A4F0C944A4FBD
:1000A0000C944A4F0C944A4F0D94F1530C944A4FC0
:1000B0000C944A4F0D94D3530C944A4F0C944A4FCE
:1000C0000C944A4F0C944A4F0C944A4F0D9446534B
:1000D0000C944A4F0C944A4F0C944A4F0C944A4F3C
:1000E0000C944A4FF4ACFDACA0AC6FAC3FACECAFA1
:1000F00038AD57AEEDAE43AF5FAF96AF03C0AABF0A
:1001000003C006C077C0A8C003C003C0CAC0ECE4E7
:10011000EFE4DEE4E2E4E8E426E5F3E4F7E4FDE41A
:1001200001E505E50BE50FE513E526E519E51DE518
:1001300021E51BE920E925E92FE939E9B2E943E99D
:100140004BE953E95DE967E971E980E98AE9B2E9D8
:1001500094E99EE9A8E95F027901E101DB0101026E
:1001600099014702E5012902AB014702D901F701D4
:100170007F025302450245023F0245023F026502EB
:10018000490269029D0159011F0279029701650127
:1001900085026101AD01CB0157020D0217028F01EB
:1001A000A501D501F5010702C701E3017701DF01D0
:1001B00051022B020B02A90189018701CF01230201
:1001C0005502EB01084AD73B3BCE016E84BCBFFD14
:1001D000C12F3D6C74319ABD56833DDA3D00C77F17
:1001E00011BED9E4BB4C3E916BAAAABE00000080B0
:1001F0003F05A84CCDB2D44EB93836A9020C50B93F
:10020000918688083CA6AAAA2ABE000000803F0763
:10021000634236B79BD8A71A39685618AEBAAB55A1
:100220008C1D3CB7CC5763BD6DEDFD753EF6177266
:1002300031BF000000803F08000000BE9224491238
:100240003EABAAAA2ABECDCCCC4C3E00000080BE5C
:10025000ABAAAAAA3E00000000BF000000803F0039
:1002600000000000084178D3BB4387D1133D190E2D
:100270003CC3BD4282AD2B3E68EC8276BED98FE195
:10028000A93E4C80EFFFBE01C4FF7F3F000000008D
:1002900000000D9463370D944E240D94C1620D94AB
:1002A00017450D9413230D94075E0D94343B0D9464
:1002B000BC620D942A4B0D9452050D9444050D9487
:1002C00048020D94D8640D94BF060D94724B0D94A2
:1002D00059050D94C9360D94B6360D940A350D9412
:1002E0006D070D941B3B0D94BBBE0D941A040D9429
:1002F0005CA00D944B080D94A3360D947B250D94B2
:100300005F640D9402450D94A6020D943D400D943A
:10031000B0A00D94A4A00D94364A0D946F040D94D2
:10032000B4660D94AE5E0D947E230D94273B0D9420
:10033000504B0D94AC080D9447640D941C4B0D94D8
:1003400080360D94E34E0D94ED440D9435670D9475
:1003500013060D9498A00D94D2080D9410670D9477
:1003600070380D948B570D949B020D9484250D9439
:1003700084640D94705F0D94C3440D941E450D94D8
:10038000FC060D94F0030D945D3D0D94DF440D9437
:100390002D660D94E43A0D94E0660D9487D70D9484
:1003A000BCA00D94CB440D948A350D9425670D9413
:1003B0004B050D94D8080D946B080D940D230D94E6
:1003C0006FA00D945D080D9450A00D94C3080D947A
:1003D000003B0D94CA4E0D94E5A00D94E6440D9497
:1003E00010450D94E0630D94D9070D948D660D941E
:1003F000E4080D9443270D94FB410D9482060D945F
:1004000009450D9476080D9418680D9430070D94E5
:100410005F660D94A8570D9495A00D94CA660D942F
:1004200034370D94E6230D9478020D940A3B0D9415
:10043000BF660D948C250D94FB440D9490360D945D
:10044000374B0D94CF440D94D6A00D9463050D94B5
:1004500087260D94D6080D9492A00D94325D0D94CC
:100460002D820D9434400D94833C0D9434270D94CB
:10047000F9200D94EE3D0D94C7440D94C0420D94A7
:1004800060440D9446400D94B7030D9451440D946F
:1004900016080D9466440D94C8240D9484600D9440
:1004A00038260D9472A00D9400090D94D9A00D94D6
:1004B000D5660D9455060D946E020D94A3070D9408
:1004C0002C080D94F4440D94B8050D9463440D94D8
:1004D00055600D940E4B0D94165F0D9493630D941F
:1004E000D3360D9432630D942B400D947C5D0D94A6
:1004F00045410D94494B0D9466640D9457090D9434
:10050000EA080D94D8440D94C65F0D94884B0D9461
:1005100058410D94E25E5F5345435F4C414E4700A6
:1005200000000000000000000000000000000000CB
:1005300000000000000000000000000000000000BB
:1005400000000000000000000000000000000000AB
:10055000000000000000000000000000000000009B
:10056000000000000000000000000000000000008B
:10057000000000000000000000000000000000007B
:10058000000000000000000000000000000000006B
:10059000000000000000000000000000000000005B
:1005A000000000000000000000000000000000004B
:1005B000000000000000000000000000000000003B
:1005C000000000000000000000000000000000002B
:1005D000000000000000000000000000000000001B
:1005E000000000000000000000000000000000000B
:1005F00000000000000000000000000000000000FB
:10060000A55AB44BDF2B5F019D6C65645F013337E6
:10061000CE02DF02F2020203140325033803700343
:10062000A603B203C003EE03F803F9030C04360477
:1006300044045704A604F6040305090516051E051F
:100640002E0540054B059B05A005AB05B005BB0578
:10065000E105F205030612061E0627069506A40606
:10066000100720072D073F0751075F076907850718
:100670009007F607050827082808320839084B08AC
:10068000570807090809740981099109A409B909DA
:10069000C509D109030A120A190A2B0A6E0A730A3C
:1006A0007B0A8D0A9B0A9C0AA70AB40AC40AD20ACA
:1006B000DE0AEB0AF70A040B2D0B400B4F0B600B05
:1006C0006A0B740B9E0BAF0BC20B2B0C6E0C790CD0
:1006D000880C930CA70CBA0CE60CF50C000D700DF1
:1006E000810D930D9F0DAB0DBE0DCB0DDB0DEA0DF6
:1006F000F90D080E1A0E2B0E2C0E7E0EAF0EBB0E31
:10070000CD0EE70E0E0F210FD90F57106510771081
:100710007D1088109A10A710FF100E1119112811C2
:1007200035114811581170117B1185118E11BC11B2
:10073000CF11F4111B1227123212411250126A12F9
:100740007012951296129C12BC12CB12D112DC12AE
:10075000E712F612F71205130E13171320133013B6
:100760003F13431348135C137F139013DD130B14D3
:1007700011145B1485149014A014A914BB14CC1488
:10078000DC147915BA150A161816A116DC160D1701
:1007900047177317A817D917031846185318801846
:1007A00091189B18BE18D3181B191C192719391931
:1007B0004A195E196A1979198C199B19DD195A1A87
:1007C000651AC71A361B5B1B671BAA1BF11B031C90
:1007D000551C671C731C841C961CA21CA31C061DA4
:1007E0000F1D161D301D3F1D4D1D5E1D691D7C1DFD
:1007F0008D1DE41D271E391E471E5A1EA61EAC1E47
:10080000B11EB61EC31EC41ED51EDA1EE91EED1E85
:10081000F51E281F2F1F3F1F4A1F951FA11FB11F25
:10082000BB1FBC1FC91FDE1FEA1F232035205B2012
:10083000D020052110211D21AD21BF21D121E12191
:10084000F021FF211422222235223C224F225A225B
:1008500064227922A522CD2209232F235423782331
:100860008B239523A623EA23ED233E248424CD2441
:10087000DA24E7242F257B25CF25DA251F266A26B3
:10088000C126D6269027E727F427F827FB27032839
:100890000D281E2825282C283D284A28512877284D
:1008A000802898289F28A828E12845298029E6291A
:1008B000202A7D2A902AA32AE62A662B782B832BCE
:1008C0008B2B972BA22BAA2BB62BC32BCE2B2030F6
:1008D0002E33206F6465722061656C74657200460A
:1008E0005320302E33206F6465722061656C74650F
:1008F000720020302E34206F646572206E6575653D
:100900007200465320302E34206F646572206E656D
:100910007565720053746174757320756E62656BD2
:10092000616E6E74005B303B305D2050756E6B7491
:100930007665727361747A004372617368204572E0
:100940006B656E6E756E67206B616E6E0A6E75728A
:1009500020696D204D6F647573204E6F726D616CF0
:100960000A67656E75747A742077657264656E00C7
:100970005741524E554E473A0A43726173682045BB
:10098000726B656E6E756E670A6465616B7469760D
:100990006965727420696D0A537465616C746820AE
:1009A0004D6F647573005A20416E70617373656E8C
:1009B0003A00416C6C657320726963687469670002
:1009C000416C6C657320616267657363686C6F73FB
:1009D00073656E2E205669656C20537061737320A9
:1009E0006265696D20447275636B656E21005261AA
:1009F000756D74656D702E0000756E64204B6E6FA2
:100A000070662064727565636B656E0053696E6411
:100A1000206C696E6B652B726563687465205A2D56
:100A2000205363686C697474656E2067616E7A2008
:100A30006F62656E3F005374617274706F73697496
:100A4000696F6E004175746F4C6164656E20466914
:100A50006C616D656E74004175746F6D617469735E
:100A600063686573204C6164656E2046696C616DD6
:100A7000656E74206E7572206265692065696E67A7
:100A800065736368616C746574656D2046696C2E6E
:100A90002073656E736F7220766572667565676226
:100AA00061722E2E2E004175746F6D6174697363CF
:100AB000686573204C6164656E2046696C616D6584
:100AC0006E742069737420616B7469762C204B6E90
:100AD0006F70662064727565636B656E20756E64F9
:100AE0002046696C616D656E742065696E6C656722
:100AF000656E2E2E2E0041636873656E6C61656EA7
:100B0000676500416368736500426574742F4865CA
:100B1000697A756E670042657474204F4B004265B8
:100B2000747420617566776165726D656E004175DC
:100B300073676C656963682042657474206F6B002D
:100B40005269656D656E74657374005A2D4B616CE6
:100B50002E206665686C67657363686C672E20532A
:100B6000656E736F72206E69636874206175736758
:100B7000656C6F6573742E205363686D75747A6944
:100B800067652044756573653F2057617274652001
:100B90006175662052657365742E0048656C6C0043
:100BA00048656C6C69676B656974004265747400B4
:100BB00047757274737461747573005374726F6DDA
:100BC00061757366616C6C2120447275636B20776C
:100BD00069656465726865727374656C6C656E3F97
:100BE000004B616C69627269657265205374617251
:100BF00074004B616C696272696572756E6720582A
:100C0000595A004B616C696272696572756E672032
:100C10005A004B616C696272696572656E003E4193
:100C20006262727563680058595A204B616C696240
:100C300072696572656E3A2044726568656E20530C
:100C400069652064656E204B6E6F70662062697303
:100C500020646572206F6265726520416E736368FF
:100C60006C61672065727265696368742077697268
:100C7000642E20416E7363686C69657373656E647E
:100C80002064656E204B6E6F7066206472756563BC
:100C90006B656E2E004B616C696272696572756E70
:100CA00067205A005A204B616C69627269657265EF
:100CB0006E3A2044726568656E20536965206465EC
:100CC0006E204B6E6F7066206269732064657220BF
:100CD0006F6265726520416E7363686C6167206541
:100CE0007272656963687420776972642E20416E40
:100CF0007363686C69657373656E642064656E20E8
:100D00004B6E6F70662064727565636B656E2E0046
:100D10004B616C696272696572756E67204F4B003A
:100D20004B616C696272696572756E67005344202D
:100D30004B6172746520656E746665726E740055E1
:100D40006562657270727565666520446174656977
:100D50000046616C7363686520466172626500419C
:100D6000626B7565686C656E004765776165686C78
:100D700074652053707261636865206B6F7069657C
:100D800072656E3F0043726173682045726B2E007E
:100D9000576165686C656E205369652065696E20D2
:100DA00046696C616D656E7420667565722045726A
:100DB00073746520536368696368746B616C6962FE
:100DC00072696572756E672061757320756E642037
:100DD000776165686C656E2053696520657320696D
:100DE0006D204F6E2D53637265656E2D4D656E756A
:100DF000206175732E0043726173682065726B61A8
:100E00006E6E742E0043726173682065726B616E42
:100E10006E742E20447275636B20666F72746675F3
:100E2000656872656E3F0000416B7475656C6C653A
:100E30007300446174756D3A00566F6E206465727C
:100E400020436F6D6D756E697479004D6F746F72AC
:100E5000656E206175730044657220416273746130
:100E60006E64207A7769736368656E2064657220AA
:100E7000537069747A652064657220447565736582
:100E800020756E642064656D2042657474206973FA
:100E900074206E6F6368206E696368742065696E84
:100EA00067657374656C6C742E2042697474652078
:100EB000666F6C67656E205369652064656D2048B8
:100EC000616E64627563682C204B61706974656C37
:100ED0002045727374652053636872697474652C5D
:100EE0002041627363686E6974742045727374651F
:100EF0002053636869636874204B616C696272692E
:100F00006572756E672E00004D6F65636874656E5F
:100F1000205369652064656E206C65747A74656E13
:100F200020536368726974742077696564657268B8
:100F30006F6C656E2C20756D2064656E2041627348
:100F400074616E64207A7769736368656E20447596
:100F500065736520756E6420447275636B62657499
:100F600074206E65752065696E7A757374656C6C36
:100F7000656E3F00452D4B6F7272656B7475723AEA
:100F80000046696C616D656E746175737775726624
:100F90000077657266652046696C616D656E7420C8
:100FA00061757300456E6465206E696368742067BF
:100FB0006574726F6666656E00456E64616E73631C
:100FC000686C616700456E64736368616C74657218
:100FD000004665686C6572202D20737461746973B6
:100FE0006368657220537065696368657220777500
:100FF00072646520756562657273636872696562A3
:10100000656E0046696C2E207363686E6569646561
:101010006E004D6573736572005363686E65696435
:10102000652066696C616D656E74004645484C4587
:10103000523A2046696C616D656E742D2073656E41
:10104000736F72207265616769657274206E69637F
:1010500068742C2062697474652056657262696ECA
:1010600064756E67207072756566656E2E004469E2
:101070006D6D004645484C45523A0045787472758E
:10108000646572204C7565667465723A00457874C3
:10109000727564657220496E666F00004D4D552D66
:1010A0004665686C657200462E206175746F6C61D0
:1010B00064656E004665686C65727374617469730B
:1010C00074696B004C7565667465722D54656D703E
:1010D0006F004C75656674657274657374004C7549
:1010E00065667465722043686B2E0046696C2E201D
:1010F00053656E736F720046696C2E204D61656E8C
:1011000067656C0046696C616D656E742065787406
:1011100072756469657274206D69742072696368A0
:1011200074696765722046617262653F0046696C4A
:101130002E206E696368742067656C6164656E005B
:1011400046696C616D656E7473656E736F7200468F
:10115000696C616D656E742062656E75747A740079
:10116000447275636B7A65697400465320416B74F1
:10117000696F6E00446174656920756E766F6C6C82
:10118000737461656E6469672054726F747A646504
:101190006D20666F727466616872656E3F004265AD
:1011A000776567756E67206265656E64656E00457C
:1011B000727374652D53636869636874204B616C46
:1011C0002E005A756E616563687374206675656874
:1011D0007265206963682064656E2053656C627374
:1011E00074746573742064757263682C20756D2047
:1011F00064696520686165756669677374656E20EA
:1012000050726F626C656D65206265696D205A75FC
:1012100073616D6D656E626175207A7520756562AA
:1012200065727072756566656E2E004265736569DC
:10123000746967656E20536965206461732050721C
:101240006F626C656D20756E642064727565636B8A
:10125000656E205369652064616E6E2064656E2042
:101260004B6E6F706620616D204D4D552E0044759C
:10127000726368666C757373005465696C65204CA5
:101280007565667465723F00566F726E65205B759A
:101290006D5D005465696C652F457874722E204C25
:1012A000756566746572004865697A756E672F5456
:1012B0006865726D6973746F72004865697A756EDE
:1012C0006720647572636820536963686572686536
:1012D00069747374696D6572206465616B74697695
:1012E000696572742E00417566776165726D656E11
:1012F000204F4B2E00417566776165726D656E00FB
:1013000048616C6C6F2C206963682062696E2049AB
:101310006872204F726967696E616C2050727573D4
:101320006120693320447275636B65722E204D6FA6
:1013300065636874656E205369652C2064617373FE
:10134000206963682053696520647572636820644E
:10135000656E2045696E726963682D2074756E67CD
:101360007361626C617566206675656872653F00C1
:1013700046696C616D656E742D5765636873656C45
:10138000005765636873656C206572666F6C677281
:101390002E21005765636873656C206F6B3F0050AA
:1013A0007275656665204265747400507275656675
:1013B0006520456E64736368616C74657200507279
:1013C0007565666520447565736500507275656660
:1013D000652053656E736F72656E00507275656639
:1013E00065205820416368736500507275656665B5
:1013F00020592041636873650050727565666520E9
:101400005A2041636873650045787472756465722B
:1014100020776165686C656E3A00576165686C6538
:101420002046696C616D656E743A000049636820FE
:101430007765726465206A65747A742064696520D2
:1014400058595A2D4B616C696272696572756E6785
:101450002064757263686675656872656E2E2045D6
:101460007320776972642063612E203132204D69C8
:101470006E7574656E2064617565726E2E004963C9
:1014800068207765726465206A65747A742064697F
:1014900065205A204B616C696272696572756E676E
:1014A0002064757263686675656872656E2E0049A2
:1014B0006E666F616E7A656967650046696C616D1D
:1014C000656E742065696E6C6567656E004973743E
:1014D000206461732046696C616D656E7420676578
:1014E0006C6164656E3F004C69656774206461736C
:1014F00020537461686C626C656368206175662056
:1015000064656D204865697A626574743F004C6556
:10151000747A746520447275636B6665686C657275
:101520000048616C6C6F2C206963682062696E20D2
:10153000496872204F726967696E616C20507275DC
:10154000736120693320447275636B65722E204984
:1015500063682077657264652053696520647572DD
:1015600063682065696E656E206B75727A656E20A2
:1015700045696E7269636874756E677370726F7AAD
:10158000657373206675656872656E2C2062656987
:101590002064656D20646965205A2D416368736518
:1015A000206B616C6962726965727420776972641C
:1015B0002E2044616E6163682073696E64205369F4
:1015C0006520626572656974206675657220646560
:1015D0006E20447275636B2E0057656E6E205369E2
:1015E00065207A75736165747A6C696368652053E8
:1015F0007461686C626C6563686520686162656EC1
:101600002C206B616C696272696572656E2053692A
:101610006520646572656E20566F7265696E7374BD
:10162000656C6C756E67656E20756E7465722045AD
:10163000696E7374656C6C756E67656E202D2048DD
:1016400057205365747570202D20537461686C6247
:101650006C656368652E004C65747A74657220440D
:101660007275636B004578747275646572204C7591
:1016700065667465723F004C696E6B73004C696EF1
:101680006B73205B756D5D004C696E6561726520E2
:101690004B6F7272656B747572005A2065696E7358
:1016A00074656C6C656E00537465636B656E205376
:1016B0006965206461732046696C616D656E742094
:1016C000286E69636874206C6164656E2920696E98
:1016D0002064656E20457874727564657220756E3D
:1016E000642064727565636B656E20536965206460
:1016F000616E6E2064656E204B6E6F70662E0046C4
:10170000696C616D656E74206C6164656E004C611E
:1017100064652046617262650046696C616D656E44
:1017200074206C6165647400576965646572686FE4
:101730006C756E67004C6F7365205269656D656EE0
:101740007363686569626500496E204E6F7A7A6CD2
:1017500065206C6164656E004D31313720457273D0
:1017600074652D53636869636874204B616C2E0047
:1017700048617570746D656E75650048656C6C2E9A
:10178000776572740044696D6D77657274004D659C
:101790007373656E20646572205265666572656E4E
:1017A0007A686F65686520646573204B616C696257
:1017B0007269657270756E6B746573004D657368E0
:1017C0004265747420417573676C65696368004D88
:1017D0004D55204F4B2E20506F736974696F6E20EA
:1017E0007769656465726865727374656C6C656E43
:1017F0002E2E2E004D4D55204F4B2E2054656D70D2
:101800006572617475722077696564657268657266
:101810007374656C6C656E2E2E2E00536368726156
:1018200065676C617566004D4D55204665686C6551
:1018300072004D4D55204C6164656665686C65723B
:10184000004D4D55204C6164656665686C6572009D
:101850004D4D55204F4B2E2020576569746572649D
:101860007275636B656E2E2E2E004D6F647573005E
:101870004D4B332D4669726D7761726520616D2025
:101880004D4B33532D447275636B65722065726BDB
:10189000616E6E7400004C65697365004D4D552096
:1018A0006572666F72646572742042656E75747AD3
:1018B000657265696E67726966662E004D4D5520CA
:1018C0004E65747A6665686C6572004C656973650F
:1018D000004175746F204C6569737400486F6865CA
:1018E000206C65697374004D4D55322076657262C7
:1018F000756E64656E00004163687365206265778C
:101900006567656E004265776567652058004265CA
:1019100077656765205900426577656765205A00DD
:101920004B65696E65204265776567756E672E0049
:101930004B65696E65205344204B61727465004E9F
:101940002F56004E65696E004E6963687420616EA3
:1019500067657363686C6F7373656E004E6575655C
:10196000204669726D776172652D205665727369C4
:101970006F6E20766572667565676261723A0044C3
:10198000726568742073696368206E6963687400A7
:101990004A65747A7420776572646520696368208B
:1019A00064656E2041627374616E64207A77697336
:1019B0006368656E2044756573656E737069747ACB
:1019C0006520756E6420447275636B626574742063
:1019D0006B616C696272696572656E2E004A65742E
:1019E0007A7420776572646520696368206469652C
:1019F000204475657365206675657220504C4120E2
:101A0000766F726865697A656E2E004475657365D8
:101A100000416C74652045696E7374656C6C756EFD
:101A200067656E20676566756E64656E2E205374FB
:101A3000616E64617264205049442C20452D5374BA
:101A400065707320752E732E772E2077657264650E
:101A50006E2067657365747A742E005465737464C0
:101A60007275636B206A65747A7420766F6E20538A
:101A70007461686C626C65636820656E746665721B
:101A80006E656E2E00447565736576656E742E0006
:101A9000447275636B2070617573696572656E0061
:101AA000504944204B616C2E00504944204B616CDE
:101AB00069622E2066657274696700504944204B44
:101AC000616C696272696572756E670050494E4457
:101AD00041206572776165726D656E004C65676562
:101AE0006E205369652065696E20426C61747420B4
:101AF00050617069657220756E74657220646965E5
:101B0000204475657365207761656872656E642031
:101B1000646572204B616C696272696572756E678B
:101B2000206465722065727374656E203420507570
:101B30006E6B74652E2057656E6E20646965204457
:101B400075657365206461732050617069657220EA
:101B5000657266617373742C2064656E20447275BF
:101B6000636B657220736F666F7274206175737337
:101B70006368616C74656E2E0042697474652072CE
:101B800065696E6967656E205369652064617320BD
:101B90004865697A6265747420756E642064727534
:101BA00065636B656E205369652064616E6E2064A9
:101BB000656E204B6E6F70662E00426974746520EE
:101BC000656E746665726E656E2053696520756515
:101BD00062657273746568656E6465732046696CCE
:101BE000616D656E7420766F6E2064657220447539
:101BF0006573652E204B6C69636B656E2077656E2F
:101C00006E207361756265722E004269747465207E
:101C10007072756566653A004269747465206C651A
:101C200073656E2053696520756E73657220486117
:101C30006E646275636820756E64206265686562B3
:101C4000656E20536965206461732050726F626C09
:101C5000656D2E2046616872656E2053696520644B
:101C6000616E6E206D69742064656D2041737369C7
:101C70007374656E74656E20666F72742C20696E65
:101C800064656D205369652064656E2044727563D8
:101C90006B6572206E6575207374617274656E2E4B
:101CA000004269747465205370616E6E726F6C6C63
:101CB00065206F6566666E656E20756E6420466988
:101CC0006C612D206D656E7420766F6E2048616E9C
:101CD0006420656E746665726E656E004269747428
:101CE00065206C6567656E205369652064617320AB
:101CF000537461686C626C6563682061756620640A
:101D00006173204865697A626574742E0042697453
:101D100074652064727565636B656E205369652018
:101D200064656E204B6E6F706620756D2064617304
:101D30002046696C616D656E74207A7520656E74DD
:101D40006C6164656E2E004269747465207A696501
:101D500068656E20536965206461732046696C6113
:101D60006D656E7420736F666F7274206865726142
:101D700075730042697474652046696C616D656EA7
:101D80007420656E746665726E656E20756E642073
:101D900064616E6E2064656E204B6E6F70662064A9
:101DA000727565636B656E00426974746520656E5B
:101DB000746665726E656E20536965206461732078
:101DC000537461686C626C65636820766F6D20483F
:101DD00065697A626574742E004269747465207A4C
:101DE00075657273742058595A204B616C69627220
:101DF000696572756E672061757366756568726571
:101E00006E2E00426974746520616B7475616C6933
:101E100073696572656E2053696520646965204643
:101E200069726D7761726520696E20646572204DFC
:101E30004D55322E205761727465206175662052AF
:101E4000657365742E0042697474652077617274DD
:101E5000656E004269747465207A756572737420CA
:101E60005472616E73706F727473696368657275B2
:101E70006E67656E20656E746665726E656E2E00A7
:101E8000447565736520766F726865697A656E2141
:101E900000566F726865697A656E00566F72686584
:101EA000697A656E206465722044756573652E20BD
:101EB00042697474652077617274656E2E004269A0
:101EC00074746520616B7475616C697369657265A2
:101ED0006E2E0042697474652064727565636B656B
:101EE0006E205369652064656E204B6E6F706620AE
:101EF000756D2064696520447565736520766F7221
:101F00007A756865697A656E20756E6420666F7291
:101F1000747A7566616872656E2E00004E65747A1B
:101F20006665686C657200447275636B20616267F8
:101F30006562726F6368656E004865697A656E20D8
:101F40007A756D204C6164656E004865697A656ECE
:101F5000207A756D20456E746C6164656E00447204
:101F600075636B76656E742E3A00447275636B65AB
:101F70006E20766F6E205344004B6E6F7066206447
:101F8000727565636B656E207A756D00447275635A
:101F90006B20706175736965727400447275656356
:101FA0006B656E205369652064656E204B6E6F70A3
:101FB0006620756D206469652044756573656E746F
:101FC000656D70657261747572207769656465729C
:101FD0006865727A757374656C6C656E00447275B1
:101FE000636B6572207775726465206E6F6368201D
:101FF0006E69636874206B616C6962726965727482
:102000002E20426974746520666F6C67656E20537C
:1020100069652064656D2048616E64627563682C33
:10202000204B61706974656C204572737465205330
:10203000636872697474652C2041627363686E69A9
:102040007474204B616C69627269652D2072756EC3
:10205000677361626C6175662E00447275636B769E
:10206000656E742E004269747465206C6567656ED8
:1020700020536965206461732046696C616D656EEB
:102080007420696E2064656E20457874727564658D
:10209000722065696E20756E642064727565636B6D
:1020A000656E205369652064616E6E2064656E20E4
:1020B0004B6E6F70662C20756D206573207A7520CD
:1020C0006C6164656E2E004269747465207374657A
:1020D000636B656E20536965206461732046696C8B
:1020E000616D656E7420696E2064656E2065727323
:1020F00074656E205363686C6175636820646572F3
:10210000204D4D5520756E642064727565636B6556
:102110006E205369652064616E6E2064656E204B8D
:102120006E6F70662C20756D206573207A75206C3B
:102130006164656E2E004269747465206C6164652B
:102140006E20536965207A756572737420646173BB
:102150002046696C616D656E742E0048696E746509
:102160006E205B756D5D00426974746520656E74E8
:102170006C6164656E2053696520657273742064B8
:1021800061732046696C616D656E7420756E6420A4
:1021900076657273756368656E2053696520657333
:1021A000206E6F63686D616C2E00426974746520E7
:1021B00049522053656E736F722056657262696E64
:1021C00064756E67656E2075656265722D2070722C
:1021D000756566656E20756E642046696C616D6517
:1021E0006E7420656E746C6164656E206973742E04
:1021F00000447275636B2077696564657268657207
:10220000737400456E746665726E656E2053696501
:102210002064617320616C74652046696C616D6532
:102220006E7420756E642064727565636B656E20D4
:102230005369652064656E204B6E6F70662C207547
:102240006D20646173206E657565207A75206C6100
:1022500064656E2E0052657365742058595A204B80
:10226000616C6962722E00527565636B7365747A76
:10227000656E00447275636B20666F72747365746B
:102280007A656E00447275636B20666F7274676561
:102290007365747A7400526563687473205B756D3E
:1022A0005D000044657220417373697374656E74D8
:1022B00020776972642064696520616B7475656C50
:1022C0006C656E204B616C696272696572756E67D0
:1022D00073646174656E206C6F65736368656E20EE
:1022E000756E6420766F6E20766F726E6520626503
:1022F00067696E6E656E2E205765697465726661DA
:102300006872656E3F005344204B617274650052E1
:1023100065636874730053756368652042657474FF
:10232000204B616C69627269657270756E6B7400C6
:10233000576165686C65205370726163686500530E
:10234000656C62737474657374204F4B0053656CD5
:10235000627374746573742073746172740053656E
:102360006C627374746573740053656C6273747417
:10237000657374204665686C6572210053656C62F4
:10238000737474657374204572726F720053656C58
:102390006273747465737420696D2047616E672C75
:1023A00020756D206469652067656E6175652052D2
:1023B0007565636B2D206B656872207A756D204E94
:1023C000756C6C70756E6B74206F686E65205365EC
:1023D0006E736F72207A75206B616C6962726965C9
:1023E00072656E00426974746520566F7268656923
:1023F0007A74656D7065726174757220617573773A
:102400006165686C656E2C20646965204968726539
:102410006D204D6174657269616C20656E747370B6
:1024200072696368742E0054656D702E2065696E44
:102430007374656C6C656E3A0045696E7374656C97
:102440006C756E67656E00456E64736368616C746D
:102450006572205374617475730045696E696765B0
:10246000204461746569656E207775722D206465FE
:102470006E206E6963687420736F7274696572741C
:102480002E204D61782E204461746569656E207040
:10249000726F205665727A656963686E6973203D54
:1024A000203130302E00536F72742E004F686E65ED
:1024B000005A6569740053656872205363687261DD
:1024C00065670000536F72746965726520446174BA
:1024D0006569656E004C617574004C65696368746C
:1024E000205363687261656700546F6E004D6165CB
:1024F0006E67656C004665686C657220617566671D
:102500006574726574656E2C205A2D4B616C69621E
:1025100072696572756E67206572666F7264657246
:102520006C6963682E2E2E0045696E6D616C0047E4
:102530006573636877696E6469676B656974004485
:102540007265687420736963680053746162696CB2
:102550006520556D676562756E67732D2074656DB6
:10256000706572617475722032312D323643207578
:102570006E64206665737465205374616E642D20EB
:10258000666C6165636865206572666F726465720A
:102590006C6963680053746174697374696B656E08
:1025A00000447275636B2061626272656368656E78
:1025B00000474553544F5050542E000041757367E7
:1025C00065746175736368740046696C616D656EEE
:1025D0007420617573776165686C656E3A00546547
:1025E0006D70204B616C69622E00576165686C6587
:1025F0006E20536965206469652054656D7065724D
:10260000617475722C20646965207A75204968723E
:10261000656D204D6174657269616C2070617373C2
:10262000742E0054656D702E206B616C6962726946
:102630006572656E0054656D706572617475726B5C
:10264000616C696272696572756E67206665686C37
:1026500067657363686C6167656E0054656D702EA5
:102660006B616C696272696572756E6720697374FB
:1026700020666572746967202B20616B7469762E01
:102680002054656D702E6B616C696272696572753C
:102690006E67206B616E6E2061757367657363682A
:1026A000616C7465742077657264656E20696D2055
:1026B0004D656E752045696E7374656C6C756E67DB
:1026C000656E202D3E2054656D702E6B616C2E0062
:1026D00053656E736F722075656265727072756591
:1026E00066742C20656E746C6164656E2053696538
:1026F000206A65747A74206461732046696C616D28
:10270000656E742E0054656D70657261747572002B
:1027100054656D70657261747572656E00457320E5
:10272000697374206E6F6368206E6F742D207765F7
:102730006E64696720646965205A2D204B616C695D
:102740006272696572756E67206175732D207A7586
:102750006675656872656E2E2042697474652062C4
:1027600065666F6C67656E205369652064617320D0
:1027700048616E64627563682C204B617069746592
:102780006C20457273746520536368726974746554
:102790002C2041627363686E697474204B616C69AC
:1027A000627269657261626C6175662E004765735D
:1027B000616D7465732046696C616D656E74004768
:1027C0006573616D746520447275636B7A656974B5
:1027D000004665696E65696E7374656C6C756E67CD
:1027E00000476573616D7465204665686C657200AD
:1027F00046696C616D656E74206C6164656E007510
:102800006D2046696C616D656E7420656E746C61D7
:1028100064656E0046696C2E20656E746C6164653B
:102820006E0046696C616D656E74206175737765C5
:102830007266656E00476573616D74004265696D0F
:1028400020447275636B2062656E75747A740053F0
:1028500070616E6E756E67656E00756E62656B6138
:102860006E6E7400576172746520617566204265F2
:102870006E75747A65722E2E0057617274656E20C3
:10288000626973204865697A756E6720756E642089
:102890004265747420616267656B7565686C74204D
:1028A00073696E640057617274656E2C206269737F
:1028B0002050494E44412D20536F6E646520616263
:1028C00067656B7565686C74206973740057617215
:1028D0006E756E673A20447275636B6572747970B9
:1028E00020756E6420506C6174696E656E747970C9
:1028F0002077757264656E2062656964652067651E
:1029000061656E646572742E005761726E756E67D4
:102910003A20506C6174696E656E747970207775B9
:1029200072646520676561656E646572742E005718
:1029300061726E756E673A20447275636B6572746E
:10294000797020777572646520676561656E64656E
:1029500072742E004B6F6E6E74656E205369652025
:102960006461732046696C616D656E7420656E7478
:102970006E65686D656E3F0056657264726168745D
:10298000756E67736665686C657200417373697311
:1029900074656E740058595A204B616C2E20446542
:1029A0007461696C730058595A2D4B616C6962727D
:1029B000696572756E67206665686C6765736368C4
:1029C0006C6167656E2E204269747465207363685C
:1029D0006175656E2053696520696E20646173209E
:1029E00048616E64627563682E004A6100536965D0
:1029F000206B6F656E6E656E2064656E204173732B
:102A0000697374656E74656E20696D6D6572206999
:102A10006D204D656E75206E6575207374617274DE
:102A2000656E3A204B616C696272696572756E679A
:102A3000202D3E20417373697374656E740058597C
:102A40005A204B616C696272696572756E672069A4
:102A50006E204F72646E756E672E205363687261CC
:102A600065676C6175662077697264206175746F43
:102A70006D617469736368206B6F727269676965F1
:102A800072742E0058595A204B616C6962726965E4
:102A900072756E6720696E204F72646E756E672E58
:102AA00020582F592041636873656E2073696E64E6
:102AB00020657477617320736368726165672E2087
:102AC0004775742067656D6163687421005665728F
:102AD0007A6F65676572756E6700582D4B6F7272FD
:102AE000656B7475723A0058595A2D4B616C696266
:102AF00072696572756E67206F6B2E20582F592D85
:102B000041636873656E2073696E642073656E6BD4
:102B10007265636874207A7565696E616E6465724A
:102B200020476C7565636B77756E73636821005819
:102B3000595A2D4B616C696272696572756E6720B6
:102B4000626565696E747261656368746967742E25
:102B500020566F7264657265204B616C69627269A0
:102B6000657270756E6B7465206E6963687420653C
:102B70007272656963686261722E0058595A2D4BF2
:102B8000616C696272696572756E672062656569FC
:102B90006E747261656368746967742E2052656330
:102BA0006874657220766F726465726572204B611D
:102BB0006C69627269657270756E6B74206E6963A0
:102BC000687420657272656963686261722E004183
:102BD0006C6C65206C6164656E0058595A2D4B61B0
:102BE0006C696272696572756E67206665686C678C
:102BF000657363686C6167656E2E20426574742D21
:102C00004B616C69627269657270756E6B74206E6F
:102C10006963687420676566756E64656E2E00581A
:102C2000595A2D4B616C696272696572756E6720C5
:102C30006665686C67657363686C6167656E2E2096
:102C4000566F7264657265204B616C69627269656A
:102C50007270756E6B7465206E696368742065723E
:102C600072656963686261722E0058595A2D4B6112
:102C70006C696272696572756E67206665686C67FB
:102C8000657363686C6167656E2E20526563687456
:102C9000657220766F726465726572204B616C6933
:102CA000627269657270756E6B7420697374206EE0
:102CB0006963687420657272656963686261722E07
:102CC000005920456E746665726E756E6720766F6A
:102CD0006D204D696E0044657220447275636B65AA
:102CE0007220626567696E6E74206D697420646518
:102CF0006D20447275636B656E2065696E65722028
:102D00005A69636B7A61636B6C696E69652E2044E6
:102D1000726568656E205369652064656E204B6E30
:102D20006F70662C20626973205369652064696541
:102D3000206F7074696D616C6520486F65686520EF
:102D4000657272656963687420686162656E2E20C1
:102D500055656265727072756566656E205369654A
:102D6000206469652042696C64657220696D204841
:102D7000616E646275636820284B61706974656C6C
:102D8000204B616C696272696572756E67292E00ED
:102D900055656265727072756566756E67206665E9
:102DA000686C2D2067657363686C6167656E2C20A5
:102DB000656E746C6164656E20536965206461732F
:102DC0002046696C616D656E7420756E6420766551
:102DD0007273756368656E2053696520657320653D
:102DE000726E6575742E00592D4B6F7272656B741F
:102DF00075723A0041757300416E005A75727565BF
:102E0000636B004B6F6E74726F6C6C650046616C27
:102E100073636874726967676572756E670053746F
:102E200072696B74005761726E656E004857204579
:102E3000696E7374656C6C756E67656E004D616765
:102E40006E6574204B6F6D702E00476974746572E7
:102E5000004D4B33532D4669726D77617265206169
:102E60007566204D4B332D447275636B657220651A
:102E7000726B616E6E74004D4D55204D6F642E0067
:102E80004D6F6475737765636873656C20657266F2
:102E90006F6C67742E2E2E004D6F64656C6C004451
:102EA0007565736520442E00472D436F6465206966
:102EB000737420667565722065696E656E20616E3B
:102EC000646572656E204C6576656C206765736C11
:102ED0006963742E20466F727466616872656E3F16
:102EE00000472D436F6465206973742066756572B1
:102EF0002065696E656E20616E646572656E204C3A
:102F00006576656C206765736C6963742E20426911
:102F100074746520736C6963656E20536965206401
:102F20006173204D6F64656C6C2065726E6575749D
:102F30002E20447275636B206162676562726F63F5
:102F400068656E2E00472D436F6465206973742099
:102F5000667565722065696E656E20616E64657266
:102F6000656E20447275636B6572206765736C696A
:102F700063742E20466F727466616872656E3F00DE
:102F8000472D436F646520697374206675657220F0
:102F900065696E656E20616E646572656E2044724F
:102FA00075636B6572206765736C6963742E20426C
:102FB0006974746520736C6963656E20536965205C
:102FC000646173204D6F64656C6C2065726E65750D
:102FD000742E20447275636B206162676562726F44
:102FE0006368656E2E00472D436F646520697374B6
:102FF00020667565722065696E65206E65756572FF
:1030000065204669726D77617265206765736C69CA
:1030100063742E20466F727466616872656E3F003D
:10302000472D436F6465206973742066756572204F
:1030300065696E65206E6575657265204669726D9D
:1030400077617265206765736C6963742E204269CD
:1030500074746520646965204669726D7761726574
:10306000207570646174656E2E20447275636B20E8
:103070006162676562726F6368656E2E004865699C
:103080007A656E207A756D205363686E697474007A
:103090004865697A656E207A756D2041757377751C
:1030A0007266004465722044757263686D6573735F
:1030B00065722064657220447275636B6572647515
:1030C0006573652077656963687420766F6D204746
:1030D0002D436F64652061622E20466F72746661B5
:1030E0006872656E3F004465722044757263686D56
:1030F00065737365722064657220447275636B65D5
:103100007264756573652077656963687420766F8E
:103110006D20472D436F64652061622E20426974E3
:1031200074652075656265727072756566656E207E
:103130005369652064656E205765727420696E203E
:1031400064656E2045696E7374656C6C756E676539
:103150006E2E20447275636B206162676562726FC8
:103160006368656E2E002573204C6576656C20655E
:103170007277617274657400556D62656E656E6E0E
:10318000656E004175737761686C0053656E736F8F
:103190007220496E666F00537461686C626C65637F
:1031A00068004173736973742E00537461686C62B4
:1031B0006C65636865005A2D4B6F7272656B747530
:1031C000723A005A2D54657374204E722E00447268
:1031D00075636B6572204950204164722E3A00007D
:1031E00000000000000000000000000000000000DF
:1031F00000000000000000000000000000000000CF
:1032000000000000000000000000000000000000BE
:1032100000000000000000000000000000000000AE
:103510000000000000004B01472D636F64652073BD
:103520006C6963656420666F7220612064696666F9
:103530006572656E74206C6576656C2E20436F6EC7
:1035400074696E75653F004C01472D636F6465209B
:10355000736C6963656420666F72206120646966BC
:10356000666572656E74206C6576656C2E20506C95
:10357000656173652072652D736C6963652074687D
:1035800065206D6F64656C20616761696E2E2050E7
:1035900072696E742063616E63656C6C65642E0085
:1035A0005001472D636F646520736C696365642007
:1035B000666F722061206E65776572206669726D34
:1035C000776172652E20506C65617365207570643B
:1035D00061746520746865206669726D77617265D3
:1035E0002E205072696E742063616E63656C6C6529
:1035F000642E004F01472D636F646520736C69630F
:10360000656420666F722061206E65776572206642
:1036100069726D776172652E20436F6E74696E7585
:10362000653F004D01472D636F646520736C6963CE
:10363000656420666F7220612064696666657265E4
:103640006E74207072696E74657220747970652E64
:1036500020436F6E74696E75653F004E01472D63A0
:103660006F646520736C6963656420666F722061A6
:1036700020646966666572656E74207072696E7426
:10368000657220747970652E20506C6561736520B9
:1036900072652D736C69636520746865206D6F6455
:1036A000656C20616761696E2E205072696E7420AE
:1036B00063616E63656C6C65642E00CB005072654F
:1036C000737320746865206B6E6F6220746F207056
:1036D000726568656174206E6F7A7A6C6520616EC0
:1036E0006420636F6E74696E75652E00BF00506C48
:1036F0006561736520707265737320746865206BF3
:103700006E6F6220746F20756E6C6F6164206669E5
:103710006C616D656E7400DF0052656D6F766520BB
:103720006F6C642066696C616D656E7420616E6497
:1037300020707265737320746865206B6E6F6220F1
:10374000746F207374617274206C6F6164696E674A
:10375000206E65772066696C616D656E742E000D54
:1037600000616E6420707265737320746865206BED
:103770006E6F62007700496E736572742066696CC3
:10378000616D656E74002C00436F6C6F72206E6FFC
:103790007420636F727265637400540046696C61D3
:1037A0006D656E74206E6F74206C6F61646564006B
:1037B00069004368616E67656420636F7272656358
:1037C000746C793F0085004C6F6164696E6720639B
:1037D0006F6C6F720068004368616E676520737577
:1037E00063636573732100BD00506C656173652070
:1037F0006F70656E2069646C657220616E64207202
:10380000656D6F76652066696C616D656E74206D9F
:10381000616E75616C6C792E0026015761732066AC
:10382000696C616D656E7420756E6C6F6164207378
:1038300075636365737366756C3F00CA00506C6591
:1038400061736520757067726164652E00AB004E10
:103850006577206669726D7761726520766572732F
:10386000696F6E20617661696C61626C653A0022F5
:103870000157616974696E6720666F722050494E06
:1038800044412070726F626520636F6F6C696E6770
:103890000032004372617368206465746563746507
:1038A000642E20526573756D65207072696E743F69
:1038B00000310043726173682064657465637465E8
:1038C000642E00710043686F6F73652065787472B1
:1038D000756465723A00720043686F6F73652066A5
:1038E000696C616D656E743A00A6004E6F206D6F55
:1038F00076652E000401537461626C6520616D620F
:1039000069656E742074656D706572617475726539
:103910002032312D323643206973206E656564652F
:10392000642061207269676964207374616E642029
:1039300069732072657175697265642E00C30050E9
:103940006C656173652072756E2058595A206361E9
:103950006C6962726174696F6E2066697273742E2D
:103960000020015761697420666F7220757365725B
:103970002E2E2E0046014D4B3353206669726D7713
:10398000617265206465746563746564206F6E2080
:103990004D4B33207072696E74657200FFFF46579D
:1039A0002063726173682064657465637465642163
:1039B00020596F752063616E20636F6E74696E7538
:1039C00065207072696E74696E672E204465627539
:1039D00067206461746120617661696C61626C6505
:1039E00020666F7220616E616C797369732E20435B
:1039F0006F6E7461637420737570706F727420746D
:103A00006F207375626D69742064657461696C738D
:103A10002E001F00426C61636B6F7574206F6363CF
:103A200075727265642E205265636F7665722070C0
:103A300072696E743F00F00053656C667465737450
:103A40002077696C6C2062652072756E20746F201F
:103A500063616C6962726174652061636375726130
:103A600074652073656E736F726C65737320726515
:103A7000686F6D696E672E0013015468657265206A
:103A80006973207374696C6C2061206E65656420B5
:103A9000746F206D616B65205A2063616C6962727E
:103AA0006174696F6E2E20506C6561736520666F5E
:103AB0006C6C6F7720746865206D616E75616C2C1D
:103AC0002063686170746572204669727374207334
:103AD000746570732C2073656374696F6E20436125
:103AE0006C6962726174696F6E20666C6F772E000C
:103AF000D6005072696E74657220686173206E6FB3
:103B000074206265656E2063616C696272617465C0
:103B100064207965742E20506C6561736520666F32
:103B20006C6C6F7720746865206D616E75616C2CAC
:103B300020636861707465722046697273742073C3
:103B4000746570732C2073656374696F6E204361B4
:103B50006C6962726174696F6E20666C6F772E009B
:103B6000B0004F6C642073657474696E677320666F
:103B70006F756E642E2044656661756C74205049C3
:103B8000442C20457374657073206574632E207710
:103B9000696C6C206265207365742E002301576187
:103BA000726E696E673A20626F7468207072696E17
:103BB000746572207479706520616E64206D6F7415
:103BC000686572626F6172642074797065206368E1
:103BD000616E6765642E0025015761726E696E67BC
:103BE0003A207072696E7465722074797065206312
:103BF00068616E6765642E0024015761726E696E9C
:103C0000673A206D6F74686572626F6172642074C8
:103C1000797065206368616E6765642E00DE00520E
:103C200065636F766572696E67207072696E740085
:103C3000C500506C656173652077616974002D0162
:103C400058595A2063616C6962726174696F6E20A1
:103C5000616C6C2072696768742E20536B657720E5
:103C600077696C6C20626520636F7272656374653E
:103C700064206175746F6D61746963616C6C792E19
:103C8000002E0158595A2063616C6962726174692F
:103C90006F6E20616C6C2072696768742E20582FDB
:103CA0005920617865732061726520736C6967685B
:103CB000746C7920736B657765642E20476F6F6431
:103CC000206A6F622100310158595A2063616C6982
:103CD00062726174696F6E206F6B2E20582F5920AD
:103CE00061786573206172652070657270656E64BD
:103CF0006963756C61722E20436F6E6772617475B3
:103D00006C6174696F6E732100330158595A2063D6
:103D1000616C6962726174696F6E20636F6D70723D
:103D20006F6D697365642E205269676874206672CE
:103D30006F6E742063616C6962726174696F6E206A
:103D4000706F696E74206E6F742072656163686154
:103D5000626C652E00320158595A2063616C6962A9
:103D6000726174696F6E20636F6D70726F6D6973CD
:103D700065642E2046726F6E742063616C69627296
:103D80006174696F6E20706F696E7473206E6F74EA
:103D900020726561636861626C652E003701585955
:103DA0005A2063616C6962726174696F6E2066612A
:103DB000696C65642E2052696768742066726F6E44
:103DC000742063616C6962726174696F6E20706FD8
:103DD000696E74206E6F7420726561636861626CD5
:103DE000652E00360158595A2063616C6962726110
:103DF00074696F6E206661696C65642E2046726F0F
:103E00006E742063616C6962726174696F6E207098
:103E10006F696E7473206E6F742072656163686180
:103E2000626C652E002A0158595A2063616C6962E0
:103E3000726174696F6E206661696C65642E2050D2
:103E40006C6561736520636F6E73756C7420746844
:103E500065206D616E75616C2E00350158595A20D0
:103E600063616C6962726174696F6E206661696C0E
:103E700065642E204265642063616C6962726174BE
:103E8000696F6E20706F696E7420776173206E6F3A
:103E90007420666F756E642E00BE00506C65617391
:103EA0006520706C61636520737465656C20736850
:103EB000656574206F6E20686561746265642E00AC
:103EC000380044697374616E636520626574776558
:103ED000656E20746970206F6620746865206E6F4F
:103EE0007A7A6C6520616E6420746865206265640E
:103EF000207375726661636520686173206E6F74EC
:103F0000206265656E20736574207965742E20507B
:103F10006C6561736520666F6C6C6F772074686583
:103F2000206D616E75616C2C2063686170746572C0
:103F30002046697273742073746570732C207365E6
:103F40006374696F6E204669727374206C61796561
:103F5000722063616C6962726174696F6E2E00B861
:103F600000506C6163652061207368656574206F23
:103F70006620706170657220756E64657220746869
:103F800065206E6F7A7A6C6520647572696E672041
:103F90007468652063616C6962726174696F6E2018
:103FA0006F66206669727374203420706F696E7456
:103FB000732E20496620746865206E6F7A7A6C656E
:103FC0002063617463686573207468652070617034
:103FD00065722C20706F776572206F66662074683A
:103FE00065207072696E74657220696D6D656469B3
:103FF0006174656C792E00C200506C656173652038
:1040000072656D6F766520737465656C2073686585
:1040100065742066726F6D20686561746265642ED8
:10402000007900497320737465656C207368656559
:1040300074206F6E20686561746265643F00E900FA
:10404000536561726368696E6720626564206361AD
:104050006C6962726174696F6E20706F696E740052
:104060008E004D6561737572696E67207265666555
:1040700072656E636520686569676874206F662085
:1040800063616C6962726174696F6E20706F696ED2
:104090007400BA00506C6561736520636C65616E75
:1040A00020746865206E6F7A7A6C6520666F722066
:1040B00063616C6962726174696F6E2E20436C6912
:1040C000636B207768656E20646F6E652E000F004D
:1040D0004175746F20686F6D65001A004265642039
:1040E0006C6576656C696E67206661696C65642EC7
:1040F0002053656E736F72206469646E2774207438
:104100007269676765722E20446562726973206FF9
:104110006E206E6F7A7A6C653F2057616974696EA4
:104120006720666F722072657365742E00C400503C
:104130006C65617365207570646174652066697271
:104140006D7761726520696E20796F7572204D4DB3
:1041500055322E2057616974696E6720666F722030
:1041600072657365742E00E300526573756D696E38
:1041700067207072696E7400B70050494E44412048
:1041800048656174696E6700280043616C696272FA
:104190006174696F6E20646F6E6500260043616C08
:1041A0006962726174696E67205A00160042656424
:1041B00020646F6E65001700426564204865617475
:1041C000696E6700640048656174696E6720646F9A
:1041D0006E652E00650048656174696E67005A005F
:1041E00046696E697368696E67206D6F76656D6587
:1041F0006E7473001C004272696768746E65737335
:10420000005A01417373697374009A0053696C65B5
:104210006E740001014F6E636500FE00536F756E92
:104220006400FC004C6F75640047014D4D55204DF6
:104230006F6465002F004372617368206465742E9B
:10424000009D00537465616C74680099004E6F7234
:104250006D616C00500046616E7320636865636B2E
:1042600000CC0050617573650058004653204163CF
:1042700074696F6E003900436F6E742E00510046F2
:10428000696C2E2073656E736F72006700436861FE
:104290006E67652066696C616D656E74005E0046D0
:1042A0006C6F7700020153706565640044014D61D5
:1042B000676E65747320636F6D702E00A8004E2FBB
:1042C00041005D015A2D70726F6265206E722E0082
:1042D00045014D657368002F0154696D656F7574F4
:1042E0000097004D6F6465000C004175746F0046C7
:1042F0000044696D001B00427269676874008D009C
:104300004C6576656C2044696D6D6564008C004C6D
:104310006576656C20427269676874004E0046617C
:104320006E207370656564001D0042656400AF0017
:104330004E6F7A7A6C6500F30053657474696E672A
:104340007300CE005072696E742061626F72746582
:104350006400060153746F70207072696E74002BD4
:1043600000436865636B696E672066696C65005918
:104370000046696C6520696E636F6D706C6574656D
:104380002E20436F6E74696E756520616E7977615A
:10439000793F00FFFF0452656672657368008B0009
:1043A0004D61696E00FB00536F7274696E67206621
:1043B000696C657300F500536F6D652066696C6507
:1043C000732077696C6C206E6F7420626520736F48
:1043D000727465642E204D61782E204E6F2E206FF2
:1043E000662066696C657320696E203120666F6C8B
:1043F00064657220666F7220736F7274696E6720D5
:104400006973203130302E00DC00506C65617365BB
:1044100020756E6C6F6164207468652066696C61DC
:104420006D656E742066697273742C207468656E95
:1044300020726570656174207468697320616374AB
:10444000696F6E2E008300496E7365727420746804
:10445000652066696C616D656E742028646F206EDE
:104460006F74206C6F61642069742920696E746FA9
:104470002074686520657874727564657220616E59
:1044800064207468656E207072657373207468654B
:10449000206B6E6F622E003A015665726966696321
:1044A0006174696F6E206661696C65642C20726549
:1044B0006D6F7665207468652066696C616D656EE8
:1044C0007420616E642074727920616761696E2E58
:1044D00000100153656E736F7220766572696669AC
:1044E00065642C2072656D6F766520746865206642
:1044F000696C616D656E74206E6F772E00DD005003
:104500006C6561736520636865636B207468652002
:1045100049522073656E736F7220636F6E6E6563B0
:1045200074696F6E2C20756E6C6F61642066696CA7
:10453000616D656E742069662070726573656E7456
:104540002E00210157616974696E6720666F7220C1
:104550006E6F7A7A6C6520616E6420626564206398
:104560006F6F6C696E6700EB0053656C6620746555
:104570007374204F4B00EC0053656C6620746573B8
:104580007420737461727400D1005072696E74206B
:1045900066616E3A004800457874727564657220F1
:1045A00066616E3A00200043616C696272617469F1
:1045B0006E6720686F6D65000900416C6C20636F49
:1045C0007272656374006D00436865636B696E6742
:1045D0002073656E736F7273006C00436865636B64
:1045E000696E6720686F74656E64006A0043686571
:1045F000636B696E67206265640070004368656381
:104600006B696E67205A2061786973006F00436898
:1046100065636B696E6720592061786973006E006D
:10462000436865636B696E67205820617869730021
:104630006B00436865636B696E6720656E647374B5
:104640006F7073002A00436172642072656D6F762B
:104650006564003D014F6E003C014F6666003E01FF
:104660004261636B0054015072696E746572206E12
:104670006F7A7A6C65206469616D65746572206417
:104680006966666572732066726F6D207468652056
:10469000472D636F64652E20506C656173652063E0
:1046A0006865636B207468652076616C7565206948
:1046B0006E2073657474696E67732E205072696E14
:1046C000742063616E63656C6C65642E00530150E9
:1046D00072696E746572206E6F7A7A6C6520646997
:1046E000616D6574657220646966666572732066C3
:1046F000726F6D2074686520472D636F64652E208E
:10470000436F6E74696E75653F00DB0052656172C0
:104710002073696465205B756D5D00600046726F93
:104720006E7420736964655B756D5D00E4005269A9
:1047300067687420736964655B756D5D0080004C0B
:104740006566742073696465205B756D5D00F200B9
:104750005365742074656D70657261747572653A25
:10476000000E0154656D7065726174757265206329
:10477000616C6962726174696F6E206661696C65F3
:1047800064000F0154656D70657261747572652007
:1047900063616C6962726174696F6E20697320660F
:1047A000696E697368656420616E64206163746911
:1047B00076652E2054656D702E2063616C6962727F
:1047C0006174696F6E2063616E2062652064697335
:1047D00061626C656420696E206D656E752053653D
:1047E0007474696E67732D3E54656D702E2063611D
:1047F0006C2E00510046696C2E2073656E736F72CB
:10480000004A00457874727564657200A5004D6FAA
:104810007665205A00A4004D6F7665205900A300EC
:104820004D6F7665205800060043726173682064FE
:104830006574656374696F6E2063616E0A626520DA
:104840007475726E6564206F6E206F6E6C7920696E
:104850006E0A4E6F726D616C206D6F6465000700AB
:104860005741524E494E473A0A4372617368206479
:104870006574656374696F6E0A64697361626C65FF
:104880006420696E0A537465616C7468206D6F648E
:10489000650011004175746F6C6F6164696E67200B
:1048A00066696C616D656E7420617661696C6162C8
:1048B0006C65206F6E6C79207768656E2066696C18
:1048C000616D656E742073656E736F7220697320FD
:1048D0007475726E6564206F6E2E2E2E0045004535
:1048E00052524F523A2046696C616D656E74207366
:1048F000656E736F72206973206E6F7420726573BA
:10490000706F6E64696E672C20706C6561736520D2
:10491000636865636B20636F6E6E656374696F6E49
:104920002E0048014D6F6465206368616E676520E5
:10493000696E2070726F67726573732E2E2E002E53
:1049400000436F70792073656C6563746564206CD7
:10495000616E67756167653F00EA0053656C65636A
:1049600074206C616E6775616765003600436F6D1A
:104970006D756E697479206D616465002300436113
:104980006C69627261746500FFFF5368656574202D
:10499000252E37730A5A206F66667365743A202590
:1049A0002B312E3366206D6D0A2563436F6E74695B
:1049B0006E75650A256353746172742066726F6D3B
:1049C000207A65726F00DA00506C65617365206C47
:1049D0006F61642066696C616D656E7420666972D2
:1049E00073742E000A0153656C6563742066696CEC
:1049F000616D656E743A00730046696C616D656E39
:104A0000740024003E43616E63656C00E6005275DD
:104A10006E6E696E672057697A6172642077696C7F
:104A20006C2064656C6574652063757272656E7464
:104A30002063616C6962726174696F6E2072657364
:104A4000756C747320616E64207374617274206677
:104A5000726F6D2074686520626567696E6E696E3D
:104A6000672E20436F6E74696E75653F00C90050F4
:104A7000726568656174696E67206E6F7A7A6C65BD
:104A80002E20506C6561736520776169742E0086F5
:104A9000004C6F6164696E672066696C616D656E5C
:104AA0007400D800506C6561736520696E7365721F
:104AB000742066696C616D656E7420696E746F2018
:104AC0007468652065787472756465722C207468EA
:104AD000656E20707265737320746865206B6E6FED
:104AE0006220746F206C6F61642069742E00D9009D
:104AF000506C6561736520696E73657274206669B8
:104B00006C616D656E7420696E746F2074686520C9
:104B100066697273742074756265206F66207468AC
:104B200065204D4D552C207468656E20707265733C
:104B30007320746865206B6E6F6220746F206C6FD9
:104B400061642069742E00390154686520707269AF
:104B50006E7465722077696C6C2073746172742056
:104B60007072696E74696E672061207A69672D7A48
:104B70006167206C696E652E20526F7461746520C8
:104B8000746865206B6E6F6220756E74696C207935
:104B90006F7520726561636820746865206F70743A
:104BA000696D616C206865696768742E204368656B
:104BB000636B207468652070696374757265732017
:104BC000696E207468652068616E64626F6F6B2027
:104BD0002843616C6962726174696F6E20636861F9
:104BE00070746572292E000C0153656C6563742026
:104BF00074656D706572617475726520776869633C
:104C000068206D61746368657320796F7572206DBB
:104C10006174657269616C2E00300043686F6F7358
:104C20006520612066696C616D656E7420666F72C7
:104C300020746865204669727374204C61796572CE
:104C40002043616C6962726174696F6E20616E6489
:104C50002073656C65637420697420696E207468C4
:104C600065206F6E2D73637265656E206D656E7560
:104C70002E00AD004E6F7720492077696C6C206361
:104C8000616C6962726174652064697374616E63DA
:104C900065206265747765656E20746970206F6643
:104CA00020746865206E6F7A7A6C6520616E64206E
:104CB0006865617462656420737572666163652EF0
:104CC000002C01596F752063616E20616C776179EA
:104CD0007320726573756D65207468652057697AF5
:104CE0006172642066726F6D2043616C69627261EB
:104CF00074696F6E202D3E2057697A6172642E00B0
:104D0000BC00506C6561736520636865636B206FE0
:104D100075722068616E64626F6F6B20616E6420D3
:104D2000666978207468652070726F626C656D2E9C
:104D3000205468656E20726573756D6520746865B2
:104D40002057697A617264206279207265626F6FA0
:104D500074696E6720746865207072696E7465721C
:104D60002E000A00416C6C20697320646F6E652E02
:104D7000204861707079207072696E74696E672165
:104D8000007C00496620796F752068617665206136
:104D900064646974696F6E616C20737465656C20FE
:104DA0007368656574732C2063616C6962726174E9
:104DB000652074686569722070726573657473200C
:104DC000696E2053657474696E6773202D2048578F
:104DD000205365747570202D20537465656C2073A5
:104DE00068656574732E00B900506C656173652049
:104DF000636C65616E206865617462656420616ED4
:104E000064207468656E20707265737320746865C1
:104E1000206B6E6F622E003A00446F20796F752010
:104E200077616E7420746F20726570656174206C98
:104E3000617374207374657020746F20726561648F
:104E40006A7573742064697374616E63652062654A
:104E5000747765656E206E6F7A7A6C6520616E641A
:104E600020686561746265643F00F10053656C659C
:104E70006374206E6F7A7A6C652070726568656104
:104E8000742074656D7065726174757265207768E1
:104E9000696368206D61746368657320796F7572EA
:104EA000206D6174657269616C2E00780049732011
:104EB00066696C616D656E74206C6F616465643FDA
:104EC00000AE004E6F7720492077696C6C207072BD
:104ED0006568656174206E6F7A7A6C6520666F72A2
:104EE00020504C412E007500492077696C6C20726F
:104EF000756E207A2063616C6962726174696F6E8D
:104F0000206E6F772E00B1004E6F772072656D6F47
:104F10007665207468652074657374207072696E9C
:104F2000742066726F6D20737465656C207368659C
:104F300065742E00C600506C656173652072656DE6
:104F40006F7665207368697070696E672068656C3C
:104F5000706572732066697273742E007400492044
:104F600077696C6C2072756E2078797A2063616C39
:104F70006962726174696F6E206E6F772E2049745A
:104F80002077696C6C2074616B6520617070726F42
:104F9000782E203132206D696E732E005C004669D8
:104FA0007273742C20492077696C6C2072756E20A6
:104FB0007468652073656C667465737420746F2003
:104FC000636865636B206D6F737420636F6D6D6FC5
:104FD0006E20617373656D626C792070726F626CA4
:104FE000656D732E00660048692C204920616D2094
:104FF000796F7572204F726967696E616C205072AB
:10500000757361206933207072696E7465722E2029
:10501000576F756C6420796F75206C696B65206DB6
:105020006520746F20677569646520796F752074D9
:1050300068726F7567682074686520736574757031
:105040002070726F636573733F007B0048692C208A
:105050004920616D20796F7572204F726967696EA2
:10506000616C205072757361206933207072696EB3
:105070007465722E20492077696C6C2067756964AD
:105080006520796F75207468726F7567682061207C
:1050900073686F72742073657475702070726F63BB
:1050A0006573732C20696E20776869636820746863
:1050B00065205A2D617869732077696C6C20626570
:1050C0002063616C696272617465642E2054686546
:1050D0006E2C20796F752077696C6C206265207268
:1050E0006561647920746F207072696E742E000D92
:1050F0000154656D702E2063616C69627261746920
:105100006F6E00E00052657365742058595A206331
:10511000616C6962722E00B6005049442063616C74
:105120006962726174696F6E001800426564206C78
:105130006576656C20636F7272656374008F004DD5
:1051400065736820426564204C6576656C696E679E
:1051500000220043616C696272617465205A00210B
:105160000043616C6962726174652058595A00EDA0
:105170000053656C667465737400190042656C7445
:10518000207465737400280157697A617264003471
:10519000014C6F616420616C6C00C000506C6561F3
:1051A00073652070756C6C206F75742066696C6116
:1051B0006D656E7420696D6D6564696174656C7987
:1051C000001B01556E6C6F6164696E672066696CC7
:1051D000616D656E7400E10052657365740056017F
:1051E00052656E616D65005B004669727374206C78
:1051F000617965722063616C2E00570153656C659F
:105200006374005B01537465656C20736865657435
:1052100073000801537570706F7274004B00466123
:10522000696C207374617473204D4D55004D0046B8
:1052300061696C2073746174730005015374617447
:1052400069737469637300290043616C69627261F8
:1052500074696F6E0010004175746F4C6F6164204B
:1052600066696C616D656E740042004375742066FA
:10527000696C616D656E74003C00456A65637420FD
:1052800066696C616D656E74001A01556E6C6F61B4
:10529000642066696C616D656E740089004C6F6195
:1052A0006420746F206E6F7A7A6C650084004C6F96
:1052B00061642066696C616D656E7400A7004E6F55
:1052C000205344206361726400D2005072696E748E
:1052D0002066726F6D20534400E200526573756D55
:1052E00065207072696E7400B3005061757365203B
:1052F0007072696E7400C8005072656865617400F0
:10530000160154756E650082004C697665206164F3
:105310006A757374205A007600496E666F20736355
:105320007265656E003B00452D636F727265637434
:105330003A005C015A2D636F72726563743A003BE8
:1053400001592D636F72726563743A003001582DF4
:10535000636F72726563743A0043004375747465D9
:10536000720049014D6F64656C00410153747269AC
:1053700063740042015761726E003F0143686563C8
:105380006B73004A014E6F7A7A6C6520642E00F7C9
:10539000004E6F6E6500FA00416C70686162657462
:1053A00000F600536F727400F80054696D6500E7F1
:1053B000005344206361726400EA0053656C6563C6
:1053C00074206C616E677561676500E50052506915
:1053D00020706F7274000B0154656D702E20636134
:1053E0006C2E0081004C696E2E20636F72726563B3
:1053F00074696F6E004301485720536574757000DF
:105400004C00462E206175746F6C6F61640037002C
:1054100044697361626C6520737465707065727342
:1054200000A2004D6F766520617869730011015408
:10543000656D7065726174757265001901746F2015
:10544000756E6C6F61642066696C616D656E740069
:105450001801746F206C6F61642066696C616D6502
:105460006E7400D300507265737320746865206B8E
:105470006E6F6200510150726568656174696E6794
:1054800020746F2063757400520150726568656105
:1054900074696E6720746F20656A65637400D0005C
:1054A00050726568656174696E6720746F20756EEF
:1054B0006C6F616400CF0050726568656174696EDD
:1054C0006720746F206C6F6164002D00436F6F6CF8
:1054D000646F776E00C700507265686561742074F0
:1054E0006865206E6F7A7A6C6521004700455252DC
:1054F0004F523A00530046696C616D656E742065C9
:105500007874727564696E672026207769746820E4
:10551000636F727265637420636F6C6F723F001209
:10552000004175746F6C6F6164696E672066696CA9
:10553000616D656E74206973206163746976652C92
:10554000206A7573742070726573732074686520A7
:105550006B6E6F6220616E6420696E736572742079
:1055600066696C616D656E742E2E2E00560046695C
:105570006C616D656E7420757365640057005072C0
:10558000696E742074696D65001401546F74616CE8
:105590002066696C616D656E74001501546F7461ED
:1055A0006C207072696E742074696D6500380159E1
:1055B0002064697374616E63652066726F6D206D1F
:1055C000696E007F004C65667400E8005269676888
:1055D000740092004D6561737572656420736B652C
:1055E0007700FD00536C6967687420736B65770002
:1055F000F90053657665726520736B657700050069
:105600005B303B305D20706F696E74206F6666732F
:10561000657400080041646A757374696E67205A86
:105620003A000400756E6B6E6F776E207374617450
:105630006500020020302E34206F72206E65776581
:105640007200000020302E33206F72206F6C646572
:10565000720096004D4D55204F4B2E2052657375AC
:105660006D696E672E2E2E0090004D4D55204F4BCC
:105670002E20526573756D696E6720706F73697443
:10568000696F6E2E2E2E0091004D4D55204F4B2EE2
:1056900020526573756D696E672074656D706572F3
:1056A00061747572652E2E2E005D00466978207437
:1056B000686520697373756520616E642074686520
:1056C0006E20707265737320627574746F6E206FD4
:1056D0006E204D4D5520756E69742E00D5005072A8
:1056E00065737320746865206B6E6F6220746F2021
:1056F000726573756D65206E6F7A7A6C652074655E
:105700006D70657261747572652E009B004D4D550C
:10571000206E6565647320757365722061747465AD
:105720006E74696F6E2E00440043757474696E6701
:105730002066696C616D656E7400C100506C6561B6
:1057400073652072656D6F76652066696C616D6545
:105750006E7420616E64207468656E20707265736B
:105760007320746865206B6E6F622E003D00456A81
:10577000656374696E672066696C616D656E74003F
:1057800094004D4D55206C6F6164206661696C65B5
:1057900064008A004D313137204669727374206C81
:1057A000617965722063616C2E00B5005049442018
:1057B00063616C2E2066696E697368656400B4006D
:1057C0005049442063616C2E00D4005072696E749D
:1057D0002070617573656400D7005072696E742023
:1057E00046414E00B2004E6F7A7A6C652046414EBB
:1057F0000093004D4D55206661696C730095004D16
:105800004D55206C6F6164206661696C73009C006B
:105810004D4D5520706F776572206661696C73001D
:105820001701546F74616C206661696C75726573E1
:10583000007A004C617374207072696E7420666126
:10584000696C7572657300CD00506F776572206664
:1058500061696C7572657300520046696C2E207226
:10586000756E6F7574730033004372617368001C4A
:1058700001546F74616C007D004C61737420707210
:10588000696E74000B00416D6269656E7400FFFF04
:1058900044756D70206D656D6F7279001E01566FD5
:1058A0006C746167657300120154656D7065726197
:1058B0007475726573001E0042656C7420737461A8
:1058C00074757300580153656E736F7220696E664C
:1058D0006F004900457874727564657220696E6660
:1058E0006F00290158595A2063616C2E2064657439
:1058F00061696C73001F01756E6B6E6F776E00A02F
:10590000004D4D553220636F6E6E656374656400A3
:105910003500446174653A00070153544F505045B7
:10592000442E00630048656174696E672064697382
:1059300061626C65642062792073616665747920A8
:1059400074696D65722E00010046532076302E3347
:10595000206F72206F6C64657200030046532076DE
:10596000302E34206F72206E65776572000001530F
:105970006F6D652070726F626C656D20656E636F10
:10598000756E74657265642C205A2D6C6576656C35
:10599000696E6720656E666F72636564202E2E2EB9
:1059A0000059015368656574002B0159657300A99E
:1059B000004E6F00AC004E6F74207370696E6E699C
:1059C0006E670003015370696E6E696E67004F0069
:1059D00046616E207465737400EF0053656C6674E5
:1059E000657374206661696C6564005501257320D8
:1059F0006C6576656C2065787065637465640040DD
:105A00000146616C73652074726967676572696EBF
:105A10006700550046696C616D656E742073656E34
:105A2000736F7200090153776170706564006100E3
:105A300046726F6E742F6C6566742066616E7300BB
:105A400014004178697300130041786973206C6514
:105A50006E6774680088004C6F6F73652070756C9A
:105A60006C6579007E004C65667420686F74656EA5
:105A7000642066616E3F005F0046726F6E74207036
:105A800072696E742066616E3F003E00456E6473FD
:105A9000746F70206E6F7420686974003F00456EEB
:105AA0006473746F7000A1004D6F746F72004000DA
:105AB000456E6473746F7073002701576972696E65
:105AC00067206572726F720015004265642F486529
:105AD0006174657200AA004E6F7420636F6E6E650C
:105AE000637465640062004865617465722F546870
:105AF00065726D6973746F7200BB00506C65617381
:105B00006520636865636B3A00EE0053656C6674EC
:105B1000657374206572726F72210064756D7020F8
:105B2000636C65617265640A006E6F2064756D70E8
:105B300020617661696C61626C650A0044323120D3
:105B40002D20726561642063726173682064756DD5
:105B5000700A006E6F2064756D7020617661696CEB
:105B600061626C650A0064756D7020636F6D706CA6
:105B70006574656420696E20256C756D730A005824
:105B8000464C41534800454550524F4D00535241F9
:105B90004D00442D31202D20456E646C65737320BB
:105BA0006C6F6F700A00746D63323133305F7072E6
:105BB000696E745F63757272656E747328290A0961
:105BC0004809520A580925640925640A59092564B7
:105BD0000925640A5A0925640925640A45092564CA
:105BE0000925640A005344207072696E74696E67F7
:105BF0002062797465200041637469766520457878
:105C00007472756465723A2000496E76616C6964DD
:105C100020657874727564657200746D6332313317
:105C2000305F73675F7468725B25635D3D25640A4E
:105C3000005A204F666673657400556E6B6E6F7701
:105C40006E20636F6D6D616E643A2022004D3230BC
:105C50003020496E76616C69642065787472756471
:105C6000657220007A5F6D61783A20007A5F6D6915
:105C70006E3A2000795F6D61783A2000795F6D6936
:105C80006E3A2000785F6D61783A20006F70656E23
:105C90000054524947474552454400785F6D696E4C
:105CA0003A20005265706F7274696E6720656E6489
:105CB00073746F70207374617475730053494C452D
:105CC0004E54004E4F524D414C002553204D4F44F1
:105CD000453A2050657263656E7420646F6E653A54
:105CE00020256868643B207072696E742074696D49
:105CF000652072656D61696E696E6720696E206DE1
:105D0000696E733A2025643B204368616E676520A5
:105D1000696E206D696E733A2025640A00456E64D1
:105D20002066696C65206C69737400426567696EF2
:105D30002066696C65206C69737400556E6B6E6FBC
:105D4000776E20256320636F64653A2025730A000F
:105D50000A50494E44412074656D706572617475D6
:105D600072653A20252E3166205A20736869667460
:105D700020286D6D293A20252E3366000A5374655C
:105D8000703A2025642F360A000A537465703A2051
:105D900025642F362028736B6970706564290A505A
:105DA000494E44412074656D706572617475726509
:105DB0003A202564205A20736869667420286D6D26
:105DC000293A300A000A5A45524F3A20252E3366A6
